:020000040000FA
:100000000C9464000C948C000C948C000C94690982
:100010000C9469090C9469090C948C000C944C079D
:100020000C948C000C948C000C948C000C948C0020
:100030000C948C000C948C000C948C000C948C0010
:100040000C9400080C948C000C94CE070C94A80718
:100050000C948C000C948C000C948C000C948C00F0
:100060000C944A080C948C00000000002400270027
:100070002A0000000008000201000003040700003D
:1000800000000000000002000000002300260029FC
:100090000000000000250028002B000404040404D4
:1000A0000404040202020202020303030303030125
:1000B00002040810204080010204081020010204FC
:1000C00008102000E109EA0D11241FBECFEFD8E08F
:1000D000DEBFCDBF23E0A0EEB1E001C01D92A03D88
:1000E000B207E1F711E0A0E0B1E0EEE3F1E202C017
:1000F00005900D92A03EB107D9F710E0C3E6D0E01D
:1001000004C02197FE010E949A0EC236D107C9F79A
:100110000E94B30A0C9492100C9400000895089564
:10012000AF92BF92CF92DF92EF92FF920F931F9305
:10013000CF93DF936C017B018B01040F151FEB0143
:100140005E01AE18BF08C017D10759F06991D601FA
:10015000ED91FC910190F081E02DC6010995892B6C
:1001600079F7C501DF91CF911F910F91FF90EF902B
:10017000DF90CF90BF90AF900895FC01538D448DD8
:10018000252F30E0842F90E0821B930B541710F042
:10019000CF96089501970895FC01918D828D98174F
:1001A00061F0A28DAE0FBF2FB11D5D968C91928D27
:1001B0009F5F9F73928F90E008958FEF9FEF089558
:1001C000FC01918D828D981731F0828DE80FF11D21
:1001D000858D90E008958FEF9FEF0895FC01918D3C
:1001E000228D892F90E0805C9F4F821B91098F7335
:1001F0009927089588EF92E00E94EE0021E0892B74
:1002000009F420E0822F089580E090E0892B29F006
:100210000E94FA0081110C9400000895FC01A48D45
:10022000A80FB92FB11DA35ABF4F2C91848D90E018
:1002300001968F739927848FA689B7892C93A089FB
:10024000B1898C91837080648C93938D848D981385
:1002500006C00288F389E02D80818F7D8083089518
:10026000EF92FF920F931F93CF93DF93EC0181E006
:10027000888F9B8D8C8D98131AC0E889F9898081AD
:1002800085FF15C09FB7F894EE89FF896083E889E0
:10029000F98980818370806480839FBF81E090E0D2
:1002A000DF91CF911F910F91FF90EF900895F62E5F
:1002B0000B8D10E00F5F1F4F0F731127E02E8C8DF9
:1002C0008E110CC00FB607FCFACFE889F98980813E
:1002D00085FFF5CFCE010E940E01F1CFEB8DEC0F23
:1002E000FD2FF11DE35AFF4FF0829FB7F8940B8F5B
:1002F000EA89FB8980818062CFCFCF93DF93EC01C5
:10030000888D8823B9F0AA89BB89E889F9898C91FD
:1003100085FD03C0808186FD0DC00FB607FCF7CFB9
:100320008C9185FFF2CF808185FFEDCFCE010E94B9
:100330000E01E9CFDF91CF91089590E0FC01EE58D6
:10034000FF4F2491FC01E155FF4F3491FC01E5562C
:10035000FF4FE491EE23C9F0222339F0233001F15D
:10036000A8F4213019F1223029F1F0E0EE0FFF1F3F
:10037000EF56FF4FA591B4918FB7F894EC916111AE
:1003800026C030953E233C938FBF08952730A9F0B7
:100390002830C9F0243049F7809180008F7D03C058
:1003A000809180008F7780938000DFCF84B58F7736
:1003B00084BDDBCF84B58F7DFBCF8091B0008F777C
:1003C0008093B000D2CF8091B0008F7DF9CF3E2BCB
:1003D000DACF9091000189130BC0E6E8F0E0E491D8
:1003E0009FEF90930001E13049F028F0E23061F096
:1003F00060E00C949D0110926E00FACF90916F0016
:100400009D7F90936F00F4CF909170009D7F9093AB
:10041000700091E09093B0009091B100987F94604B
:100420009093B1001092B300E3CFCF93DF9390E0AD
:10043000FC01E155FF4F249185569F4FFC018491AB
:100440008823D1F090E0880F991FFC01E859FF4FF5
:10045000A591B491FC01EF56FF4FC591D491611164
:100460000EC09FB7F8948C91E22FE0958E238C9369
:100470002881E223E8839FBFDF91CF9108958FB752
:10048000F894EC91E22BEC938FBFF6CF3FB7F89442
:100490008091D7029091D802A091D902B091DA024E
:1004A00026B5A89B05C02F3F19F00196A11DB11DCF
:1004B0003FBFBA2FA92F982F8827BC01CD01620F0B
:1004C000711D811D911D42E0660F771F881F991FC6
:1004D0004A95D1F708958F929F92AF92BF92CF9293
:1004E000DF92EF92FF924B015C010E9446026B018A
:1004F0007C010E9446026C197D098E099F09683EA5
:10050000734081059105A8F321E0821A9108A108A2
:10051000B10888EEC80E83E0D81EE11CF11C8114DE
:100520009104A104B10429F7FF90EF90DF90CF90E0
:10053000BF90AF909F908F90089508952091610291
:10054000260F3327331F21323105ECF42091AA0204
:10055000FC0190E080E0243069F082E00895A091F1
:1005600061022191AC014F5B5D4FA40FB52FB11D0E
:100570002C930196861798F380916102680F60931F
:10058000610280E0089581E008951092AA0281E05E
:100590008093A9021092840261E082E10E949D0191
:1005A00061E083E10E949D01E9EBF0E080818E7FB4
:1005B000808380818D7F808388E48093B80085E488
:1005C0008093BC000895CF93DF9391E09093400215
:1005D0008823B9F0C091B800D091BA008091BC00D6
:1005E0008A7B8093BC0060E082E10E949D0160E014
:1005F00083E10E949D010E94C502D093BA00C0937E
:10060000B800DF91CF9108950895E091E2028091C2
:10061000E102E81730F4F0E0E05EFD4F808190E009
:1006200008958FEF9FEF08959091E2028091E1028B
:100630002FEF3FEF981748F4E92FF0E0E05EFD4F11
:10064000208130E09F5F9093E202C901089580917C
:10065000E1029091E202891B990B0895CF92DF92FB
:10066000EF92FF920F931F93CF93DF937C01CB0107
:100670008A012091B002222389F0EB016B01C40EA4
:10068000D51ECC15DD0569F06991D701ED91FC917E
:100690000190F081E02DC7010995F3CF642F0E94EE
:1006A0009E02C801DF91CF911F910F91FF90EF90B3
:1006B000DF90CF900895CF93DF931F92CDB7DEB731
:1006C00069832091B0022223F9F02091DF022032C9
:1006D00058F021E030E0FC013383228390E080E099
:1006E0000F90DF91CF9108958091E002E82FF0E024
:1006F000EF54FD4F998190838F5F8093E002809348
:10070000DF0281E090E0ECCF61E0CE0101960E9433
:100710009E02F7CFCF92DF92EF92FF920F931F933B
:10072000CF93DF93FC01C48121E02093B002C093FA
:10073000D1021092E0021092DF028385682B85E9D6
:1007400093E00E945B03D091DF02D13208F092C0A7
:100750000E9446026B017C018091AA02811165C052
:1007600082E08093AA0281E08093A9028FEF8093B8
:10077000A8021092A702D093A602A1EBB2E0E6E88D
:10078000F2E080E0D81385C0109285028091850246
:10079000CC0FC82BC093850280918402813009F070
:1007A0007CC0109284020E9446026B017C01809101
:1007B00085028093BB008091AC029091AD02A09124
:1007C000AE02B091AF02892B8A2B8B2B99F00E943D
:1007D00046020091AC021091AD022091AE02309120
:1007E000AF026C197D098E099F09061717072807A4
:1007F0003907E0F18091BC0083FDD9CF85EC80936F
:10080000BC000E9446026B017C018091AA028230EA
:1008100009F445C08091A8028F3F61F18091A80240
:10082000803241F18091A80225C08091AC02909164
:10083000AD02A091AE02B091AF02892B8A2B8B2B17
:1008400009F48ACF0E9446020091AC021091AD02D9
:100850002091AE023091AF026C197D098E099F097B
:10086000061717072807390708F076CF8091AB02E3
:100870000E94E3021092E0021092DF021092B00296
:10088000DF91CF911F910F91FF90EF90DF90CF906C
:1008900008959D9191938F5F75CF85EEB0CF809134
:1008A000AC029091AD02A091AE02B091AF02892B43
:1008B0008A2B8B2B09F4A9CF0E9446020091AC022F
:1008C0001091AD022091AE023091AF026C197D09FA
:1008D0008E099F09061717072807390708F095CFD3
:1008E000C5CF2091E5023091E6022817390771F44F
:1008F0009091E3028091E402981741F0E091E302C5
:10090000F0E0E052FE4F808190E008958FEF9FEF7E
:100910000895EF92FF920F931F93CF93DF93DC0123
:100920005C96ED90FC905D97E114F10479F481E020
:1009300090E013969C938E93129790E080E0DF9165
:10094000CF911F910F91FF90EF9008955196ED91E7
:10095000FC91529750968C915097982F90950FB785
:100960005E962C915E97122F127021FD6095F8947F
:100970002081112319F1282B2083E7012197F1F71A
:1009800028E0462F50E0308160FF1AC0382B3083BA
:10099000E7012197F1F7BA0175956795215089F71D
:1009A000112381F08081892380830FBF5C968D9114
:1009B0009C910197F1F781E090E0C1CF2923DCCF32
:1009C0003923E5CF9081892BEFCF2091E50230913B
:1009D000E6022817390771F48091E4022091E302BE
:1009E00090E0805C9F4F821B910960E470E00E9460
:1009F000720E089590E080E008952091E502309114
:100A0000E60228173907B9F49091E3028091E402D5
:100A1000981789F0E091E302F0E0E052FE4F808108
:100A20002091E30230E02F5F3F4F2F733327209355
:100A3000E30290E008958FEF9FEF089590E080E04B
:100A400008950F931F93CF938C01C62F0E948A03A2
:100A50006C2F6460C8010E948A036C2F6B7FC801F1
:100A60000E948A0383EC90E00197F1F7CF911F91E8
:100A70000F9108950F931F93CF93DF938C01D62F7F
:100A8000C42F607F642B0E94210580E1D89FB001B4
:100A900011246C2BC801DF91CF911F910F910C9401
:100AA0002105CF93DF93823028F09091C5039860A1
:100AB0009093C5038093C80362E370E080E090E008
:100AC0000E946B026091CB0380EC93E00E948A034A
:100AD00068EE73E080E090E00E946B0260E380ECDF
:100AE00093E00E942105CBE4D6E4CE010197F1F713
:100AF00060E380EC93E00E9421052197F1F760E329
:100B000080EC93E00E94210583E592E00197F1F7E4
:100B100060E280EC93E00E9421056091C503606271
:100B200040E080EC93E00E943A0584E08093C603A5
:100B300040E06CE080EC93E00E943A0540E061E028
:100B400080EC93E00E943A05CBE3DFE1CE01019710
:100B5000F1F782E08093C70340E066E080EC93E029
:100B60000E943A0540E062E080EC93E00E943A0582
:100B70002197F1F7DF91CF910895CF93DF93CDB710
:100B8000DEB728970FB6F894DEBF0FBECDBF98E052
:100B9000E7E0F1E0DE01119601900D929A95E1F700
:100BA0009091C803961708F46FEF262F30E0220FBC
:100BB000331F41E050E04C0F5D1F240F351FF9013A
:100BC0006081680F606840E080EC93E028960FB683
:100BD000F894DEBF0FBECDBFDF91CF910C943A05E4
:100BE00041E00E943A0581E090E00895CF93DF93C1
:100BF000EC0188819981009711F00E943C0F1982C5
:100C000018821D821C821B821A82DF91CF91089567
:100C1000FC0180819181009711F00C943C0F0895A4
:100C2000FB0101900020E9F73197AF01461B570BFC
:100C3000DC01ED91FC910280F381E02D0994CF93CA
:100C4000DF93FC01448155816081718188EF92E0DE
:100C50000E949000EC0166E671E088EF92E00E944D
:100C600010068C0F9D1FDF91CF9108950F931F9356
:100C7000CF93DF93EC0188819981009759F02A8105
:100C80003B812617370730F081E0DF91CF911F912C
:100C90000F9108958B016F5F7F4F0E94C50F0097E2
:100CA00059F0998388831B830A832C813D81232BF0
:100CB00059F7FC011082E8CF80E0E7CFEF92FF9276
:100CC0000F931F93CF93DF936115710541F480E07B
:100CD000DF91CF911F910F91FF90EF9008954115F3
:100CE0005105B1F07B01EC010C811D81040F151F32
:100CF000B8010E943606882351F3288139818C81FE
:100D00009D81B701820F931F0E948B101D830C835E
:100D100081E0DECFEF92FF920F931F93CF93DF938B
:100D2000EC017B018A01BA010E94360681110BC0D9
:100D3000CE010E94F605CE01DF91CF911F910F9158
:100D4000FF90EF9008951D830C83B70188819981EE
:100D50000E948B10F0CFFC0111821082138212824C
:100D600015821482FB0101900020E9F73197AF0151
:100D7000461B570B0C948A060F931F93CF93DF9358
:100D800000D000D000D0CDB7DEB78C0161E571E0B6
:100D900081EA93E00E94100668EC70E080E090E049
:100DA0000E946B02F801448155816081718181EA62
:100DB00093E00E94900068EC70E080E090E00E9478
:100DC0006B026AE181EA93E00E94890464E670E0C4
:100DD00080E090E00E946B0269E671E0CE0101962E
:100DE0000E94AB06F8014481558160817181CE017A
:100DF00001960E945E06811104C0CE0101960E94F8
:100E0000F605CE0101960E941F06CE0101960E94B2
:100E1000080626960FB6F894DEBF0FBECDBFDF9151
:100E2000CF911F910F91089585ED8093BC00809123
:100E3000AC029091AD02A091AE02B091AF020796C4
:100E4000A11DB11D23E0B695A795979587952A9585
:100E5000D1F72091BC0024FD03C01092AA0208958E
:100E60004091AC025091AD026091AE027091AF0220
:100E7000452B462B472B69F30097A105B10541F09F
:100E800025E32A95F1F700000197A109B109E1CF07
:100E90008091AB020C94E3021F920F920FB60F9257
:100EA00011242F933F934F935F936F937F938F936F
:100EB0009F93AF93BF93EF93FF938091EC02909138
:100EC000ED02A091EE02B091EF02892B8A2B8B2BC1
:100ED000D1F19091E702E091E802F091E90280817E
:100EE000892780838091EC029091ED02A091EE021F
:100EF000B091EF02181619061A061B069CF4809191
:100F0000EC029091ED02A091EE02B091EF020197F8
:100F1000A109B1098093EC029093ED02A093EE0237
:100F2000B093EF02FF91EF91BF91AF919F918F919D
:100F30007F916F915F914F913F912F910F900FBED5
:100F40000F901F901895809100010E94E901EACF4F
:100F50001F920F920FB60F9211242F933F934F932E
:100F60005F936F937F938F939F93AF93BF93EF9311
:100F7000FF9388EF92E00E940E01FF91EF91BF91E5
:100F8000AF919F918F917F916F915F914F913F9121
:100F90002F910F900FBE0F901F9018951F920F92D8
:100FA0000FB60F9211242F938F939F93EF93FF937C
:100FB000E0910803F09109038081E0910E03F09124
:100FC0000F0382FD1BC09081809111038F5F8F738F
:100FD00020911203821741F0E0911103F0E0E850F4
:100FE000FD4F958F80931103FF91EF919F918F910A
:100FF0002F910F900FBE0F901F9018958081F4CF06
:101000001F920F920FB60F9211242F933F938F933D
:101010009F93AF93BF938091D3029091D402A091FC
:10102000D502B091D6023091D20223E0230F2D37A2
:1010300058F50196A11DB11D2093D2028093D302D1
:101040009093D402A093D502B093D6028091D70298
:101050009091D802A091D902B091DA020196A11D17
:10106000B11D8093D7029093D802A093D902B09378
:10107000DA02BF91AF919F918F913F912F910F9085
:101080000FBE0F901F90189526E8230F0296A11D02
:10109000B11DD2CF1F920F920FB60F9211242F9332
:1010A0003F934F935F936F937F938F939F93AF93F0
:1010B000BF93EF93FF938091B900887F803609F446
:1010C0004AC0F0F5883209F4A7C018F5803109F458
:1010D0009BC0B8F4882309F4F9C0883009F494C09F
:1010E000FF91EF91BF91AF919F918F917F916F9100
:1010F0005F914F913F912F910F900FBE0F901F90D6
:101100001895883109F488C0803251F78093A8027D
:1011100014C0803409F49DC040F48033B9F388339F
:10112000F9F68093A80285ECB0C0803509F485C03B
:10113000883509F496C0883499F60E941407D0CFF8
:10114000883909F48CC038F5883729F050F488368E
:1011500011F0803729F683E08093AA02109283026F
:1011600057C0883809F47BC0803919F0803809F0FD
:10117000B7CF80918302803208F071C0E091830282
:1011800081E08E0F809383028091BB00F0E0ED59E7
:10119000FD4F80833DC0803B39F0E0F4803A09F494
:1011A00079C0883A09F09CCF84E08093AA0210921B
:1011B000620210926102E091DD02F091DE02099577
:1011C0008091610281110FC081E0809361021092D1
:1011D000410209C0803C09F4A6CF883C09F4A3CFA2
:1011E000883B09F07DCFE091620281E08E0F809311
:1011F0006202F0E0EF5BFD4F80818093BB00909135
:1012000062028091610229C0809185028093BB00B7
:1012100085EC8093BC0064CF9091A7028091A602D8
:10122000981758F5E091A70281E08E0F8093A702EE
:10123000F0E0EA57FD4F8081E9CFE091A70281E01D
:101240008E0F8093A7028091BB00F0E0EA57FD4F1C
:1012500080839091A7028091A6029817C8F285E832
:10126000D8CFE091A70281E08E0F8093A7028091F2
:10127000BB00F0E0EA57FD4F80838091A902811105
:101280005CCF81E08093840284EA8093BC0010925A
:10129000AA0226CF85EC8093BC001092AA0280910E
:1012A0008302803230F4E0918302F0E0ED59FD4F8B
:1012B00010826091830270E0E091DB02F091DC0229
:1012C00083E692E00995109283020ACF1092A80259
:1012D00034CF1F920F920FB60F9211242F933F938A
:1012E0004F935F936F937F938F939F93AF93BF932E
:1012F000EF93FF93E091E502F091E602309749F019
:10130000A685B7858585968D91FF14C09C9189230C
:10131000A1F4FF91EF91BF91AF919F918F917F9138
:101320006F915F914F913F912F910F900FBE0F9052
:101330001F9018959C91892361F7A389B4899C918A
:101340008589809589238C93868997890197F1F700
:10135000608D718DA685B785558538E020E0CB017D
:101360000197F1F7822F90E095958795282F4C9162
:10137000452309F02068315091F7868D81FD209535
:101380008091E40290E001968F7399273091E302F7
:10139000381799F0A091E402B0E0A052BE4F2C9310
:1013A0008093E402828D938D0197F1F7A389B4892C
:1013B0008C919589892B8C93ACCF868D8160868F9B
:1013C000F1CF1092FB021092FA0288EE93E0A0E0B7
:1013D000B0E08093FC029093FD02A093FE02B093D4
:1013E000FF0223E131E03093F9022093F80225EC6B
:1013F00030E0309305032093040324EC30E0309375
:1014000007032093060320EC30E030930903209378
:10141000080321EC30E030930B0320930A0322EC05
:1014200030E030930D0320930C0326EC30E0309332
:101430000F0320930E0310921103109212031092C7
:101440001303109214031092980310929703809341
:10145000990390939A03A0939B03B0939C0325E276
:1014600031E030939603209395031092C3031092BA
:10147000C20329E431E03093C1032093C00320E28A
:101480002093C40324E12093C90324E02093CA03DA
:101490001092CB031092A4031092A3038093A50390
:1014A0009093A603A093A703B093A80387E391E0CA
:1014B0009093A2038093A1031092B8031092B703F4
:1014C0001092BA031092B9031092BC031092BB039E
:1014D0001092BE031092BD036091BF036E7F6D7FBB
:1014E0006093BF036695617081E068278BE00E947E
:1014F0009D0161E08BE00E941502EAEBF0E0E491CF
:10150000E093B103E6EAF0E0E491F0E0EE0FFF1FB4
:10151000EF56FF4F859194919093B3038093B2035C
:1015200060E08AE00E9415028091BF0381FD04C043
:1015300061E08AE00E949D018AE08093AD03E9EBBF
:10154000F0E0E491E093AE03E5EAF0E0E491F0E04E
:10155000EE0FFF1FE957FF4F859194919093B003D1
:101560008093AF030895CF93DF93CDB7DEB76E9727
:101570000FB6F894DEBF0FBECDBF789484B58260FD
:1015800084BD84B5816084BD85B5826085BD85B527
:10159000816085BD80916E00816080936E001092A5
:1015A0008100809181008260809381008091810020
:1015B00081608093810080918000816080938000B1
:1015C0008091B10084608093B1008091B00081600F
:1015D0008093B00080917A00846080937A0080913B
:1015E0007A00826080937A0080917A008160809393
:1015F0007A0080917A00806880937A001092C1000E
:101600001092E2021092E1021092E0021092DF02C8
:101610000E94C5028EE890E09093DE028093DD0286
:101620008FE890E09093DC028093DB021092C50378
:101630008091CA030E94510588E08093CB0360E04B
:1016400080EC93E00E948A0360E080E00E94BD0588
:101650006EEC71E080EC93E00E94100682E00E9444
:101660005105E0910803F091090382E08083E09145
:101670000403F09105031082E0910603F091070343
:101680008FEC808310921003E0910C03F0910D0316
:1016900086E08083E0910A03F0910B0380818061F2
:1016A0008083E0910A03F0910B038081886080833E
:1016B000E0910A03F0910B03808180688083E091C0
:1016C0000A03F0910B0380818F7D808361E08BE0C2
:1016D0000E94150261E08CE00E94150261E08DE03D
:1016E0000E9415021092BC031092BB031092BA0321
:1016F0001092B9031092B8031092B7038DE991E0EC
:101700009093BE038093BD039091AD03963108F092
:1017100047C02DEB30E03093B8032093B7032BE99B
:1017200031E03093BA032093B9032CE231E03093D7
:10173000BC032093BB032091680084E0983048F0FC
:1017400031E09E3008F430E081E001C0880F3A9526
:10175000EAF7822B809368002DE630E0983050F055
:101760002BE630E09E3030F02CE630E0963110F081
:1017700030E020E03093B5032093B403292F30E00C
:10178000983008F019C181E001C0880F9A95EAF7F6
:101790008093B6038091BD039091BE030197F1F74A
:1017A0008091BB039091BC03892B49F1E091E50244
:1017B000F091E60283E0E13AF80709F1309739F059
:1017C000A389B4899C918589809589238C93809184
:1017D000BF038E7F8093BF031092E4021092E30256
:1017E00081EA93E09093E6028093E502E091B403EE
:1017F000F091B50380819091B603892B808365E7D2
:1018000071E081EA93E00E94100668EC70E080E0ED
:1018100090E00E946B0261E871E088EF92E00E9424
:10182000100666E671E088EF92E00E9410063FE342
:10183000232E3FE1332E46E8842E40E0942E58EAD2
:10184000C52E50E0D52E6CEBA62E60E0B62E70E9CA
:10185000472E55245394612C712C8E010F5F1F4F1E
:1018600090E490937C0080917A00806480937A0069
:1018700080917A0086FDFCCF80917800E09079001D
:10188000FE2CE82E6FE871E088EF92E00E941006CF
:1018900060E083E00E94BD056FE871E080EC93E0BA
:1018A0000E94100668E971E0CE0149960E94AB06DD
:1018B0001C8A1B8A1E8A1D8A188E1F8A4AE0B8015C
:1018C000C7010E94060EF80101900020E9F7319748
:1018D000AF01401B510BB801CE0143960E948A060E
:1018E000E3E3EE16F1040CF453C11A8219821C8250
:1018F0001B821E821D82698D7A8D6115710529F00A
:101900004D8D5E8DC8010E948A06C8010E94BC06EA
:10191000C8010E9408061A8219821C821B821E823C
:101920001D826B897C896115710529F04F89588D5D
:10193000C8010E948A06C8010E94BC06C8010E9414
:10194000080661E08BE00E949D0161E080E00E945A
:10195000BD056EEC71E080EC93E00E94100660E043
:101960008CE00E949D01809100018D3091F5F40181
:10197000F490F7FCCEC061E08DE00E941502FF20DC
:1019800009F499C0F2E0FF12AAC08091B100887FEB
:1019900083608093B10089EF8093B3004092EC02A2
:1019A0005092ED026092EE027092EF028091700010
:1019B000826080937000ADC09E3040F428503109A1
:1019C00081E001C0880F2A95EAF7E2CE2E50310956
:1019D000F7CF8F3F09F09DC08DE080930001F401A7
:1019E000F490FFEFFF1609F494C081E0F81629F196
:1019F000F81658F092E0F91609F43CC0F7FC89C0DB
:101A000061E08DE00E941502BDCF14BC15BC84B509
:101A1000826084BD85B5816085BDF6018491E82F23
:101A2000F0E0EE0FFF1FEF56FF4F85919491F50107
:101A300084918093EB02F12C9ECF10928000109243
:101A40008100809181008860809381008091810075
:101A5000816080938100F6018491E82FF0E0EE0F21
:101A6000FF1FEF56FF4F85919491F501849180936C
:101A7000EA0281CF1092B0001092B1008091B000C4
:101A800082608093B0008091B10081608093B1004A
:101A9000F6018491E82FF0E0EE0FFF1FEF56FF4FA5
:101AA000859194919093E9028093E802F5018491E5
:101AB0008093E70260CF85B5887F836085BD8CE722
:101AC00087BD4092F4025092F5026092F602709245
:101AD000F70280916E00826080936E001AC081E0F0
:101AE000F8124DC080918100887F816080938100D1
:101AF00030928900209288004092F0025092F102C8
:101B00006092F2027092F30280916F008260809383
:101B10006F00CE0149960E941F0665EA71E0C80178
:101B20000E94AB064F89588D6B897C89C8010E9441
:101B30005E06811103C0C8010E94F605C8010E941B
:101B40001F06C8010E94080668EC70E080E090E083
:101B50000E946B02CE0143960E940806CE01499670
:101B60000E940806E0E0F0E0EF2B09F479CE0E9435
:101B7000FA00882309F474CE0E9400006ECE92E031
:101B8000F91621F0F110C5CF8FE39ACF8FE304CF80
:101B900060E08BE00E949D0161E08CE00E949D016D
:101BA00064EB71E088EF92E00E94100666E671E057
:101BB00088EF92E00E94100661E080E00E94BD057F
:101BC0006BEC71E080EC93E00E9410068DE00E94C7
:101BD000E901BACF87E391E09093A2038093A10338
:101BE0008091E5029091E602815A934071F4E09170
:101BF000B403F091B50390818091B6038095892359
:101C000080831092E6021092E5020895BB274A30C5
:101C100031F4992322F4BDE2909581959F4F0C9465
:101C2000120EBB27FB015527AA27880F991FAA1F51
:101C3000A41710F0A41B83955051B9F7A05DAA33E7
:101C400008F0A95DA193009779F7B111B1931192B2
:101C5000CB010C942B0EDC01FC01672F71917723D3
:101C6000E1F7329704C07C916D9370836291AE1757
:101C7000BF07C8F308952F923F924F925F926F92E1
:101C80007F928F929F92AF92BF92CF92DF92EF920C
:101C9000FF920F931F93CF93DF93CDB7DEB7CA1B8D
:101CA000DB0B0FB6F894DEBF0FBECDBF09942A88B8
:101CB000398848885F846E847D848C849B84AA8460
:101CC000B984C884DF80EE80FD800C811B81AA81ED
:101CD000B981CE0FD11D0FB6F894DEBF0FBECDBFB8
:101CE000ED01089597FB072E16F4009407D077FDB9
:101CF00009D00E94860E07FC05D03EF49095819590
:101D00009F4F0895709561957F4F0895AA1BBB1B47
:101D100051E107C0AA1FBB1FA617B70710F0A61BEB
:101D2000B70B881F991F5A95A9F780959095BC010C
:101D3000CD010895EE0FFF1F0590F491E02D099459
:101D40000F931F93CF93DF938230910510F482E0BD
:101D500090E0E091CE03F091CF0330E020E0B0E0DE
:101D6000A0E0309799F42115310509F44AC0281BE9
:101D7000390B24303105D8F58A819B8161157105B5
:101D800089F1FB0193838283FE0111C0408151815F
:101D90000281138148175907E0F04817590799F451
:101DA000109761F012960C93129713961C9332962B
:101DB000CF01DF91CF911F910F9108950093CE0332
:101DC0001093CF03F4CF2115310551F0421753077B
:101DD00038F0A901DB019A01BD01DF01F801C1CF93
:101DE000EF01F9CF9093CF038093CE03CDCFFE01C7
:101DF000E20FF31F81939193225031093983288395
:101E0000D7CF2091CC033091CD03232B41F42091E7
:101E10000301309104013093CD032093CC03209132
:101E20000101309102012115310541F42DB73EB772
:101E30004091050150910601241B350BE091CC0324
:101E4000F091CD03E217F307A0F42E1B3F0B2817E8
:101E5000390778F0AC014E5F5F4F2417350748F023
:101E60004E0F5F1F5093CD034093CC03819391930A
:101E70009FCFF0E0E0E09CCFCF93DF930097E9F0B5
:101E8000FC01329713821282A091CE03B091CF034E
:101E9000ED0130E020E01097A1F420813181820F24
:101EA000931F2091CC033091CD032817390709F0F7
:101EB00061C0F093CD03E093CC03DF91CF910895FF
:101EC000EA01CE17DF07E8F54A815B819E014115E3
:101ED0005105B1F7E901FB83EA8349915991C40F98
:101EE000D51FEC17FD0761F4808191810296840F64
:101EF000951FE90199838883828193819B838A83DB
:101F0000F0E0E0E012968D919C9113970097B9F55F
:101F10002D913C911197CD010296820F931F209134
:101F2000CC033091CD032817390739F6309751F596
:101F30001092CF031092CE03B093CD03A093CC03A5
:101F4000BCCFD383C28340815181840F951FC817B2
:101F5000D90761F44E5F5F4F88819981480F591FFF
:101F6000518340838A819B8193838283211531052C
:101F700009F0B0CFF093CF03E093CE039ECFFD01E5
:101F8000DC01C0CF13821282D7CFB0E0A0E0EBEC2F
:101F9000FFE00C943D0E8C01009751F4CB010E94A0
:101FA000A00E8C01C801CDB7DEB7E0E10C94590E4C
:101FB000FC01E60FF71F9C0122503109E217F307DD
:101FC00008F49DC0D901CD91DC911197C617D707B0
:101FD00098F0C530D10530F3CE01049786179707E6
:101FE00008F3C61BD70B2297C193D1936D937C93B3
:101FF000CF010E943C0FD6CF5B01AC1ABD0A4C0149
:102000008C0E9D1EA091CE03B091CF03512C412C7C
:10201000F12CE12C109731F58091CC039091CD03F8
:102020008815990509F05CC04616570608F058C097
:102030008091010190910201009741F48DB79EB704
:102040004091050150910601841B950BE817F90793
:1020500008F055C0F093CD03E093CC03F9017183F0
:102060006083A0CF8D919C91119712966C901297DE
:1020700013967C901397A815B90559F56C0142E0A9
:10208000C40ED11CCA14DB0420F1AC014A195B094F
:10209000DA011296159780F0628273825183408331
:1020A000D9016D937C93E114F10471F0D70113967B
:1020B000FC93EE93129776CF22968C0F9D1FF90119
:1020C00091838083F301EFCFF093CF03E093CE03AE
:1020D00069CF4816590608F42C017D01D3019ACF27
:1020E000CB010E94A00E7C01009749F0AE01B8011F
:1020F0000E948210C8010E943C0F870153CF10E05C
:1021000000E050CFFB01DC0102C001900D92415074
:102110005040D8F70895FB01DC0101900D9200209A
:10212000E1F7089510E0C3E6D0E004C0FE010E948C
:102130009A0E2196C436D107C9F7F894FFCFFF0055
:1021400000D0038000000040001400540000000094
:102150000030019000BD007D01EE00CC00E00000E9
:102160000000005B032E031E050403270314030570
:102170000300000000890490001E050403E504FD2F
:1021800004710400000000F00590001E059D02414E
:10219000542B434D47533D222B31323334353637A0
:1021A000383930220D0A00446174612073656E7401
:1021B0003A200041542B434D47463D310D0A005310
:1021C000797374656D2052656164792100535441BF
:1021D0005455533A2000464952452F474153204415
:1021E00045540053656E736F722056616C75653A85
:1021F00020004E4F2046495245452F474153204429
:102200004554454354454421004E4F2046495245CC
:0E2210002F4741532044455445435445440054
:107800000C94343C0C94513C0C94513C0C94513CE1
:107810000C94513C0C94513C0C94513C0C94513CB4
:107820000C94513C0C94513C0C94513C0C94513CA4
:107830000C94513C0C94513C0C94513C0C94513C94
:107840000C94513C0C94513C0C94513C0C94513C84
:107850000C94513C0C94513C0C94513C0C94513C74
:107860000C94513C0C94513C11241FBECFEFD8E036
:10787000DEBFCDBF11E0A0E0B1E0ECE9FFE702C060
:1078800005900D92A230B107D9F712E0A2E0B1E065
:1078900001C01D92AD30B107E1F70E942D3D0C945F
:1078A000CC3F0C94003C982F959595959595959582
:1078B000905D8F708A307CF0282F295A8091C0000B
:1078C00085FFFCCF9093C6008091C00085FFFCCF60
:1078D0002093C6000895282F205DF0CF982F809127
:1078E000C00085FFFCCF9093C6000895EF92FF92F1
:1078F0000F931F93EE24FF2487018091C00087FD22
:1079000017C00894E11CF11C011D111D81E4E8164B
:1079100082E4F8068FE0080780E0180770F3E09132
:107920000401F091050109958091C00087FFE9CF1E
:107930008091C6001F910F91FF90EF9008950E94D3
:10794000763C982F8091C00085FFFCCF9093C600B5
:1079500091362CF490330CF09053892F089597555D
:10796000892F08951F930E949F3C182F0E949F3CCF
:107970001295107F810F1F9108951F93182F882350
:1079800021F00E94763C1150E1F71F9108951F935A
:10799000182F0E94763C803249F0809103018F5F5E
:1079A000809303018530C1F01F9108958091C0003C
:1079B00085FFFCCF84E18093C6008091C00085FFE5
:1079C000FCCF1093C6008091C00085FFFCCF80E102
:1079D0008093C6001F910895E0910401F091050184
:1079E00009951F9108950E94763C803241F0809164
:1079F00003018F5F80930301853081F008958091AA
:107A0000C00085FFFCCF84E18093C6008091C00058
:107A100085FFFCCF80E18093C6000895E0910401CA
:107A2000F09105010995089540E951E08823A1F0FE
:107A30002D9A28EE33E0FA013197F1F721503040CA
:107A4000D1F72D9828EE33E0FA013197F1F7215064
:107A50003040D1F7815061F708953F924F925F9285
:107A60006F927F928F929F92AF92BF92CF92DF924E
:107A7000EF92FF920F931F93CF93DF93000080E16B
:107A80008093C4001092C50088E18093C10086E015
:107A90008093C2005098589A259A81E00E94143D24
:107AA00024E1F22E9EE1E92E85E9D82E0FE0C02ECA
:107AB00010E1B12EAA24A394B1E49B2EA6E58A2E50
:107AC000F2E57F2EE0E26E2E79E4572E63E5462E36
:107AD00050E5352E0E94763C8033B1F18133B9F107
:107AE000803409F46FC0813409F476C0823409F41B
:107AF00085C0853409F488C0803531F1823521F1A3
:107B0000813511F1853509F485C0863509F48DC0BC
:107B1000843609F496C0843709F403C1853709F423
:107B200072C1863709F466C0809103018F5F80932C
:107B30000301853079F6E0910401F0910501099582
:107B40000E94763C803351F60E94F33CC3CF0E94E2
:107B5000763C803249F78091C00085FFFCCFF092DF
:107B6000C6008091C00085FFFCCF9092C600809136
:107B7000C00085FFFCCF8092C6008091C00085FFC9
:107B8000FCCF7092C6008091C00085FFFCCF609250
:107B9000C6008091C00085FFFCCF5092C600809146
:107BA000C00085FFFCCF4092C6008091C00085FFD9
:107BB000FCCF3092C6008091C00085FFFCCFB09210
:107BC000C60088CF0E94763C863808F4BDCF0E945C
:107BD000763C0E94F33C7ECF0E94763C803809F4CC
:107BE0009CC0813809F40BC1823809F43CC1883942
:107BF00009F48FC080E00E94C73C6CCF84E10E94F2
:107C0000BD3C0E94F33C66CF85E00E94BD3C0E94D3
:107C1000F33C60CF0E94763C809306010E94763C44
:107C2000809307010E94F33C55CF0E94763C80333D
:107C300009F41DC183E00E94BD3C80E00E94C73C66
:107C400049CF0E94763C809309020E94763C809343
:107C5000080280910C028E7F80930C020E94763C79
:107C6000853409F415C18091080290910902892B8D
:107C700089F000E010E00E94763CF801E85FFE4FDA
:107C800080830F5F1F4F80910802909109020817AF
:107C9000190788F30E94763C803209F045CF809125
:107CA0000C0280FF01C16091060170910701660F0F
:107CB000771F7093070160930601A0910802B091AD
:107CC00009021097C9F0E8E0F1E09B01AD014E0F09
:107CD0005F1FF999FECF32BD21BD819180BDFA9A17
:107CE000F99A2F5F3F4FE417F50799F76A0F7B1F4B
:107CF00070930701609306018091C00085FFFCCF5F
:107D0000F092C6008091C00085FFFCCFB092C60003
:107D1000E1CE83E00E94C73CDDCE82E00E94C73CFA
:107D2000D9CE0E94763C809309020E94763C8093D3
:107D300008028091060190910701880F991F909386
:107D40000701809306010E94763C853409F4A6C0A1
:107D500080910C028E7F80930C020E94763C8032D0
:107D600009F0B8CE8091C00085FFFCCFF092C6002C
:107D7000609108027091090261157105B9F140E046
:107D800050E080910C02A82FA170B82FB27011C0E2
:107D9000BB2309F45CC0E0910601F0910701319624
:107DA000F0930701E09306014F5F5F4F46175707B7
:107DB000E8F4AA2369F3F999FECF209106013091E6
:107DC000070132BD21BDF89A90B58091C00085FFB2
:107DD000FCCF9093C6002F5F3F4F30930701209355
:107DE00006014F5F5F4F4617570718F38091C00099
:107DF00085FDE5CE8091C00085FFF8CFE0CE81E023
:107E00000E94C73C67CE0E94763C803209F08CCE3F
:107E10008091C00085FFFCCFF092C6008091C00029
:107E200085FFFCCFE092C6008091C00085FFFCCFAB
:107E3000D092C6008091C00085FFFCCFC092C600E2
:107E40008091C00085FFFCCFB092C60043CEE09188
:107E50000601F091070194918091C00085FFFCCF4D
:107E60009093C6009CCF80E10E94C73C33CE0E9415
:107E7000763C0E94763C182F0E94763C112309F430
:107E800083C0113009F484C08FE00E94C73C22CE29
:107E900080910C02816080930C02E5CE80910C02EF
:107EA000816080930C0259CF809107018823880F4D
:107EB000880B8A2180930B02809106019091070123
:107EC000880F991F90930701809306018091080203
:107ED00080FF09C080910802909109020196909359
:107EE000090280930802F894F999FECF1127E091D6
:107EF0000601F0910701C8E0D1E08091080290915D
:107F00000902103091F40091570001700130D9F34B
:107F100003E000935700E89500915700017001308D
:107F2000D9F301E100935700E89509901990009169
:107F3000570001700130D9F301E000935700E89534
:107F40001395103498F011270091570001700130FB
:107F5000D9F305E000935700E895009157000170B0
:107F60000130D9F301E100935700E895329602976A
:107F700009F0C7CF103011F00296E5CF112480919F
:107F8000C00085FFB9CEBCCE8EE10E94C73CA2CD19
:0E7F900085E90E94C73C9ECDF894FFCF80008B
:00000001FF
